:100000000C9462000C948A000C948A000C948A0070
:100010000C948A000C948A000C948A000C948A0038
:100020000C948A000C948A000C948A000C948A0028
:100030000C948A000C948A000C948A000C948A0018
:100040000C94D5060C948A000C94A3060C947D069F
:100050000C948A000C948A000C948A000C948A00F8
:100060000C941F070C948A00000000002400270055
:100070002A0000000000250028002B0000000000DE
:1000800023002600290004040404040404040202DA
:100090000202020203030303030301020408102007
:1000A0004080010204081020010204081020000012
:1000B0000008000201000003040700000000000027
:1000C00000003E0811241FBECFEFD8E0DEBFCDBF39
:1000D00012E0A0E0B1E0E2E2FBE102C005900D9287
:1000E000AE31B107D9F723E0AEE1B2E001C01D9215
:1000F000A73AB207E1F710E0C2E6D0E004C02197CA
:10010000FE010E94890DC136D107C9F70E948608F9
:100110000C948F0D0C94000008950895AF92BF9237
:10012000CF92DF92EF92FF920F931F93CF93DF93C3
:100130006C017B018B01040F151FEB015E01AE18F2
:10014000BF08C017D10759F06991D601ED91FC9114
:100150000190F081E02DC6010995892B79F7C50141
:10016000DF91CF911F910F91FF90EF90DF90CF9093
:10017000BF90AF900895FC01538D448D252F30E042
:10018000842F90E0821B930B541710F0CF960895A4
:1001900001970895FC01918D828D981761F0A28DD1
:1001A000AE0FBF2FB11D5D968C91928D9F5F9F7397
:1001B000928F90E008958FEF9FEF0895FC01918D4D
:1001C000828D981731F0828DE80FF11D858D90E0BA
:1001D00008958FEF9FEF0895FC01918D228D892F57
:1001E00090E0805C9F4F821B91098F73992708953F
:1001F00082EF92E00E94EC0021E0892B09F420E0DC
:10020000822F089580E090E0892B29F00E94F80069
:1002100081110C9400000895FC01A48DA80FB92F42
:10022000B11DA35ABF4F2C91848D90E001968F731E
:100230009927848FA689B7892C93A089B1898C913D
:10024000837080648C93938D848D981306C002888C
:10025000F389E02D80818F7D80830895EF92FF9256
:100260000F931F93CF93DF93EC0181E0888F9B8DD9
:100270008C8D98131AC0E889F989808185FF15C093
:100280009FB7F894EE89FF896083E889F9898081B6
:100290008370806480839FBF81E090E0DF91CF9185
:1002A0001F910F91FF90EF900895F62E0B8D10E0A7
:1002B0000F5F1F4F0F731127E02E8C8D8E110CC016
:1002C0000FB607FCFACFE889F989808185FFF5CF61
:1002D000CE010E940C01F1CFEB8DEC0FFD2FF11D33
:1002E000E35AFF4FF0829FB7F8940B8FEA89FB899E
:1002F00080818062CFCFCF93DF93EC01888D8823FC
:10030000B9F0AA89BB89E889F9898C9185FD03C078
:10031000808186FD0DC00FB607FCF7CF8C9185FF5D
:10032000F2CF808185FFEDCFCE010E940C01E9CF95
:10033000DF91CF910895833081F028F4813099F0D6
:100340008230A9F008958730A9F08830C9F0843050
:10035000B1F4809180008F7D03C0809180008F7701
:1003600080938000089584B58F7784BD089584B507
:100370008F7DFBCF8091B0008F778093B000089580
:100380008091B0008F7DF9CFCF93DF93282F30E09D
:10039000F901E255FF4F8491F901E656FF4FD491E0
:1003A000F901EA57FF4FC491CC23A1F081110E94BB
:1003B0009B01EC2FF0E0EE0FFF1FE458FF4FA591DB
:1003C000B491EC91ED2381E090E009F480E0DF91BD
:1003D000CF91089580E090E0FACF1F93CF93DF9301
:1003E000282F30E0F901E255FF4F8491F901E656DC
:1003F000FF4FD491F901EA57FF4FC491CC23A9F0E4
:10040000162F81110E949B01EC2FF0E0EE0FFF1FD1
:10041000EE58FF4FA591B4918FB7F894EC9111115C
:1004200008C0D095DE23DC938FBFDF91CF911F9161
:100430000895DE2BF8CFCF93DF9390E0FC01E656D2
:10044000FF4F24918A579F4FFC0184918823D1F05C
:1004500090E0880F991FFC01E859FF4FA591B491D6
:10046000FC01EE58FF4FC591D49161110EC09FB7AA
:10047000F8948C91E22FE0958E238C932881E223CF
:10048000E8839FBFDF91CF9108958FB7F894EC91E7
:10049000E22BEC938FBFF6CF8E50806480937C006C
:1004A00080917A00806480937A0080917A0086FD42
:1004B000FCCF809178009091790008953FB7F8942F
:1004C0008091D1029091D202A091D302B091D40236
:1004D00026B5A89B05C02F3F19F00196A11DB11D9F
:1004E0003FBFBA2FA92F982F8827BC01CD01620FDB
:1004F000711D811D911D42E0660F771F881F991F96
:100500004A95D1F708958F929F92AF92BF92CF9262
:10051000DF92EF92FF924B015C010E945E026B0141
:100520007C010E945E026C197D098E099F09683E5C
:10053000734081059105A8F321E0821A9108A10872
:10054000B10888EEC80E83E0D81EE11CF11C8114AE
:100550009104A104B10429F7FF90EF90DF90CF90B0
:10056000BF90AF909F908F900895089520915F0263
:10057000260F3327331F21323105ECF42091A802D6
:10058000FC0190E080E0243069F082E00895A091C1
:100590005F022191AC01415C5D4FA40FB52FB11DED
:1005A0002C930196861798F380915F02680F6093F1
:1005B0005F0280E0089581E008951092A80281E032
:1005C0008093A7021092820261E082E10E94ED0115
:1005D00061E083E10E94ED01E9EBF0E080818E7F34
:1005E000808380818D7F808388E48093B80085E458
:1005F0008093BC000895CF93DF9391E090933E02E7
:100600008823B9F0C091B800D091BA008091BC00A5
:100610008A7B8093BC0060E082E10E94ED0160E093
:1006200083E10E94ED010E94DD02D093BA00C093E5
:10063000B800DF91CF9108950895E091DC02809198
:10064000DB02E81730F4F0E0E25EFD4F808190E0DD
:1006500008958FEF9FEF08959091DC028091DB0267
:100660002FEF3FEF981748F4E92FF0E0E25EFD4FDF
:10067000208130E09F5F9093DC02C9010895809152
:10068000DB029091DC02891B990B0895CF92DF92D7
:10069000EF92FF920F931F93CF93DF937C01CB01D7
:1006A0008A012091AE02222389F0EB016B01C40E76
:1006B000D51ECC15DD0569F06991D701ED91FC914E
:1006C0000190F081E02DC7010995F3CF642F0E94BE
:1006D000B602C801DF91CF911F910F91FF90EF906B
:1006E000DF90CF900895CF93DF931F92CDB7DEB701
:1006F00069832091AE022223F9F02091D9022032A1
:1007000058F021E030E0FC013383228390E080E068
:100710000F90DF91CF9108958091DA02E82FF0E0F9
:10072000E155FD4F998190838F5F8093DA0280932A
:10073000D90281E090E0ECCF61E0CE0101960E9409
:10074000B602F7CFCF92DF92EF92FF920F931F93F3
:10075000CF93DF93FC01C48121E02093AE02C093CC
:10076000CF021092DA021092D9028385682B8FE8AB
:1007700093E00E947303D091D902D13208F092C065
:100780000E945E026B017C018091A802811165C00C
:1007900082E08093A80281E08093A7028FEF80938C
:1007A000A6021092A502D093A402AFEAB2E0E4E858
:1007B000F2E080E0D81385C010928302809183021A
:1007C000CC0FC82BC093830280918202813009F044
:1007D0007CC0109282020E945E026B017C018091BB
:1007E00083028093BB008091AA029091AB02A091FA
:1007F000AC02B091AD02892B8A2B8B2B99F00E9411
:100800005E020091AA021091AB022091AC023091DD
:10081000AD026C197D098E099F0906171707280775
:100820003907E0F18091BC0083FDD9CF85EC80933E
:10083000BC000E945E026B017C018091A8028230A4
:1008400009F445C08091A6028F3F61F18091A60214
:10085000803241F18091A60225C08091AA02909138
:10086000AB02A091AC02B091AD02892B8A2B8B2BED
:1008700009F48ACF0E945E020091AA021091AB0295
:100880002091AC023091AD026C197D098E099F094F
:10089000061717072807390708F076CF8091A902B5
:1008A0000E94FB021092DA021092D9021092AE025C
:1008B000DF91CF911F910F91FF90EF90DF90CF903C
:1008C00008959D9191938F5F75CF85EEB0CF809104
:1008D000AA029091AB02A091AC02B091AD02892B1B
:1008E0008A2B8B2B09F4A9CF0E945E020091AA02E9
:1008F0001091AB022091AC023091AD026C197D09D0
:100900008E099F09061717072807390708F095CFA2
:10091000C5CF90E080E008950F931F93CF938C0193
:10092000C62F0E94A2036C2F6460C8010E94A2031C
:100930006C2F6B7FC8010E94A20383EC90E00197AB
:10094000F1F7CF911F910F9108950F931F93CF93BC
:10095000DF938C01D62FC42F607F642B0E948C0400
:1009600080E1D89FB00111246C2BC801DF91CF9199
:100970001F910F910C948C04CF93DF93CDB7DEB70A
:1009800028970FB6F894DEBF0FBECDBF98E0E0E029
:10099000F1E0DE01119601900D929A95E1F79091A8
:1009A000A303961708F46FEF262F30E0220F331FB2
:1009B00041E050E04C0F5D1F240F351FF9016081AD
:1009C000680F606840E08BE993E028960FB6F894D2
:1009D000DEBF0FBECDBFDF91CF910C94A50440E0E8
:1009E00061E08BE993E00E94A5048BE39FE101970E
:1009F000F1F7089541E00E94A50481E090E0089598
:100A0000FB0101900020E9F73197AF01461B570B1E
:100A1000DC01ED91FC910280F381E02D09948F922D
:100A20009F92AF92BF920F931F93CF93DF93CDB757
:100A3000DEB7A1970FB6F894DEBF0FBECDBF19A2E7
:100A4000423008F44AE08E010F5D1F4F842E912C36
:100A5000B12CA12CA50194010E94670DE62FB901CC
:100A6000CA01EA3004F5E05DD801EE938D01232B35
:100A7000242B252B79F790E080E0109729F0BD0119
:100A80008BE993E00E940005A1960FB6F894DEBFB3
:100A90000FBECDBFDF91CF911F910F91BF90AF904F
:100AA0009F908F900895E95CDFCFBC018BE993E0C4
:100AB0000C940005CF93DF93BC0182EF92E00E947B
:100AC0000005EC0168E371E082EF92E00E9400050E
:100AD0008C0F9D1FDF91CF9108954F925F926F927F
:100AE0007F928F929F92AF92BF92CF92DF92EF92BE
:100AF000FF92CF93DF936B017C01AC019B010E94BD
:100B0000620D6BE371E0811126C046015701E89444
:100B1000B7F82FEF3FEF4FE75FE7C501B4010E9441
:100B2000620D81110CC02FEF3FEF4FE75FE7C5016A
:100B3000B4010E940A0C6FE371E0181664F02FEF05
:100B40003FEF4FE75FE4C701B6010E94F00C1816B3
:100B5000A4F463E471E08BE993E0DF91CF91FF901F
:100B6000EF90DF90CF90BF90AF909F908F907F904D
:100B70006F905F904F900C9400052FEF3FEF4FE781
:100B80005FECC701B6010E940A0C87FDE2CF20E0AE
:100B900030E0A901C701B6010E940A0CD0E0C0E014
:100BA00087FF0CC041E06DE28BE993E00E94A50451
:100BB000F7FAF094F7F8F094C1E0D0E02AE037EDCE
:100BC00043EA5BE3C701B6010E949E0B4B015C0147
:100BD0000E940F0C6B017C010E943E0C9B01AC013A
:100BE000C501B4010E949D0B4B015C014AE0C701A5
:100BF000B6010E940F057C01EC0EFD1E41E06EE285
:100C00008BE993E00E94A5048FEFE81AF80A20E030
:100C100030E040E251E4C501B4010E94F50C2B0123
:100C20003C010E940F0C4B01B12CA12C4AE0C501E4
:100C3000B4010E940F05E80EF91EC501B4010E941F
:100C40003E0C9B01AC01C301B2010E949D0B20E050
:100C500030E040E251E40E94F50C0E940F0C90E05D
:100C600080E04AE00E940F058E0D9F1DDF91CF911D
:100C7000FF90EF90DF90CF90BF90AF909F908F90BC
:100C80007F906F905F904F90089585ED8093BC00AA
:100C90008091AA029091AB02A091AC02B091AD02FA
:100CA0000796A11DB11D23E0B695A7959795879549
:100CB0002A95D1F72091BC0024FD03C01092A80210
:100CC00008954091AA025091AB026091AC027091DC
:100CD000AD02452B462B472B69F30097A105B105C3
:100CE00041F025E32A95F1F700000197A109B10928
:100CF000E1CF8091A9020C94FB021F920F920FB6D4
:100D00000F9211242F933F934F935F936F937F9391
:100D10008F939F93AF93BF93EF93FF9382EF92E0F4
:100D20000E940C01FF91EF91BF91AF919F918F9124
:100D30007F916F915F914F913F912F910F900FBED7
:100D40000F901F9018951F920F920FB60F921124BB
:100D50002F938F939F93EF93FF93E0910203F09172
:100D600003038081E0910803F091090382FD1BC019
:100D7000908180910B038F5F8F7320910C038217FA
:100D800041F0E0910B03F0E0EE50FD4F958F809322
:100D90000B03FF91EF919F918F912F910F900FBEB9
:100DA0000F901F9018958081F4CF1F920F920FB66D
:100DB0000F9211242F933F938F939F93AF93BF93E1
:100DC0008091DD029091DE02A091DF02B091E002FD
:100DD0003091D00223E0230F2D3758F50196A11D45
:100DE000B11D2093D0028093DD029093DE02A09388
:100DF000DF02B093E0028091D1029091D202A091E3
:100E0000D302B091D4020196A11DB11D8093D102ED
:100E10009093D202A093D302B093D402BF91AF912A
:100E20009F918F913F912F910F900FBE0F901F9028
:100E3000189526E8230F0296A11DB11DD2CF1F924F
:100E40000F920FB60F9211242F933F934F935F93FE
:100E50006F937F938F939F93AF93BF93EF93FF9382
:100E60008091B900887F803609F44AC0F0F5883255
:100E700009F4A7C018F5803109F49BC0B8F48823A1
:100E800009F4F9C0883009F494C0FF91EF91BF9143
:100E9000AF919F918F917F916F915F914F913F9112
:100EA0002F910F900FBE0F901F901895883109F465
:100EB00088C0803251F78093A60214C0803409F4B0
:100EC0009DC040F48033B9F38833F9F68093A602CD
:100ED00085ECB0C0803509F485C0883509F496C02A
:100EE000883499F60E944506D0CF883909F48CC021
:100EF00038F5883729F050F4883611F0803729F614
:100F000083E08093A8021092810257C0883809F4C8
:100F10007BC0803919F0803809F0B7CF8091810209
:100F2000803208F071C0E091810281E08E0F8093E1
:100F300081028091BB00F0E0EF59FD4F80833DC0FE
:100F4000803B39F0E0F4803A09F479C0883A09F03E
:100F50009CCF84E08093A8021092600210925F02FE
:100F6000E091D702F091D802099580915F0281113A
:100F70000FC081E080935F0210923F0209C0803C65
:100F800009F4A6CF883C09F4A3CF883B09F07DCFB4
:100F9000E091600281E08E0F80936002F0E0E15CFE
:100FA000FD4F80818093BB009091600280915F0231
:100FB00029C0809183028093BB0085EC8093BC00A4
:100FC00064CF9091A5028091A402981758F5E09102
:100FD000A50281E08E0F8093A502F0E0EC57FD4F53
:100FE0008081E9CFE091A50281E08E0F8093A50278
:100FF0008091BB00F0E0EC57FD4F80839091A502FB
:101000008091A4029817C8F285E8D8CFE091A50294
:1010100081E08E0F8093A5028091BB00F0E0EC5739
:10102000FD4F80838091A70281115CCF81E0809386
:10103000820284EA8093BC001092A80226CF85EC3D
:101040008093BC001092A80280918102803230F41B
:10105000E0918102F0E0EF59FD4F10826091810232
:1010600070E0E091D502F091D60281E692E0099518
:10107000109281020ACF1092A60234CFE2EFF2E082
:101080001382128288EE93E0A0E0B0E0848395831F
:10109000A683B7832CE031E03183208325EC30E058
:1010A0003587248724EC30E03787268720EC30E032
:1010B000318B208B21EC30E0338B228B22EC30E023
:1010C000358B248B26EC30E0378B268B118E128EDD
:1010D000138E148EEFE8F3E01382128284839583DB
:1010E000A683B7838EE191E091838083EBE9F3E0FF
:1010F0001382128280E391E09183808387E284836C
:1011000080E1818782E0828713860895789484B590
:10111000826084BD84B5816084BD85B5826085BDF3
:1011200085B5816085BD80916E00816080936E0081
:101130001092810080918100826080938100809173
:101140008100816080938100809180008160809324
:1011500080008091B10084608093B1008091B000E4
:1011600081608093B00080917A00846080937A00DF
:1011700080917A00826080937A0080917A00816009
:1011800080937A0080917A00806880937A00109230
:10119000C10060E08DE00E941B0260E08CE00E94D4
:1011A0001B0260E08BE00E941B0261E08AE00E946B
:1011B0001B0261E089E00E941B0261E088E00E945E
:1011C0001B0260E08EE00E941B0260E08FE00E9444
:1011D0001B0260E080E10E941B02E0910203F0919B
:1011E000030382E08083E091FE02F091FF0210820F
:1011F000E0910003F09101038FEC808310920A03C9
:10120000E0910603F091070386E08083E0910403F8
:10121000F0910503808180618083E0910403F09167
:101220000503808188608083E0910403F0910503C9
:10123000808180688083E0910403F09105038081C0
:101240008F7D80831092DC021092DB021092DA0212
:101250001092D9020E94DD028CE890E09093D802AF
:101260008093D7028DE890E09093D6028093D502C8
:101270001092A0038091A503823018F098E090931B
:10128000A0038093A30362E370E080E090E00E94FB
:1012900083026091A6038BE993E00E94A20368EEAB
:1012A00073E080E090E00E94830260E38BE993E0CA
:1012B0000E948C04CBE4D6E4CE010197F1F760E301
:1012C0008BE993E00E948C042197F1F760E38BE9AE
:1012D00093E00E948C0483E592E00197F1F760E2CD
:1012E0008BE993E00E948C046091A003606240E06F
:1012F0008BE993E00E94A50484E08093A10340E081
:101300006CE08BE993E00E94A5040E94EF0482E068
:101310008093A20340E066E08BE993E00E94A5047D
:1013200040E062E08BE993E00E94A5048BE39FE13B
:101330000197F1F788E08093A60360E08BE993E0E2
:101340000E94A20387E491E00E94550560ED77E0DA
:1013500080E090E00E94830261E080E00E94BC0493
:1013600085E591E00E94550568EE73E080E090E02D
:101370000E9483028BE0482E8BEA582E83E1682E70
:1013800081E4782E9AE4892E95EE992E9EE1A92E7D
:1013900091E4B92E20E0222E20E0322E8FB7F8946F
:1013A000C090DD02D090DE02E090DF02F090E0021B
:1013B0008FBF8DE00E94C4018C018CE00E94C401AB
:1013C000EC018BE00E94C4012DEC30E748E051E4D1
:1013D0002093EE023093EF024093F0025093F1021B
:1013E0004092EA025092EB026092EC027092ED029F
:1013F0008092E6029092E702A092E802B092E9029F
:101400000130110509F0D8C0219709F08BC0019770
:1014100009F088C08091E2029091E302A091E40279
:10142000B091E502A7019601281B390B4A0B5B0B13
:10143000DA01C901883C9105A105B10508F472C023
:101440008091E10281116EC081E08093E102C0923F
:10145000E202D092E302E092E402F092E5028EE032
:101460000E944C0282E691E00E945A050E94EF041D
:1014700060E080E00E94BC0481E791E00E94550595
:1014800068EE73E080E090E00E94830261E080E01B
:101490000E94BC0481E891E00E94550561E08AE069
:1014A0000E94ED0160E089E00E94ED0160E088E0CB
:1014B0000E94ED0168EE73E080E090E00E948302FC
:1014C0000E94EF0460E080E00E94BC0481E991E0AA
:1014D0000E94550561E080E00E94BC046091EE022C
:1014E0007091EF028091F0029091F1020E946D05DF
:1014F00061E086E00E94BC048EE991E00E945505FF
:1015000068EE73E080E090E00E94830221143104D1
:1015100009F444CF0E94F800882309F43FCF0E94C9
:1015200000003CCF86EA91E00E945A058EE00E94BE
:101530004C020E94EF0460E080E00E94BC0481E75E
:1015400091E00E94550568EE73E080E090E00E9413
:10155000830261E08AE00E94ED0160E089E00E9480
:10156000ED0160E088E00E94ED0168EE73E080E04C
:1015700090E00E9483020E94EF0460E080E00E94FD
:10158000BC0481E991E00E94550561E080E00E9481
:10159000BC046091EE027091EF028091F002909194
:1015A000F1020E946D0561E086E00E94BC048EE9B4
:1015B00091E00E945505AACF219709F048C082EB1F
:1015C00091E00E945A058FE00E944C020E94EF04B5
:1015D00060E080E00E94BC0481E791E00E94550534
:1015E00068EE73E080E090E00E94830261E080E0BA
:1015F0000E94BC0480EC91E00E94550560E08AE006
:101600000E94ED0161E089E00E94ED0160E088E068
:101610000E94ED0168EE73E080E090E00E9483029A
:101620000E94EF0460E080E00E94BC048CEC91E03A
:101630000E94550561E080E00E94BC046091EA02CE
:101640007091EB028091EC029091ED02AACF01978C
:1016500009F048C088ED91E00E945A0580E10E949F
:101660004C020E94EF0460E080E00E94BC0481E72D
:1016700091E00E94550568EE73E080E090E00E94E2
:10168000830261E080E00E94BC0484EE91E00E944D
:10169000550560E08AE00E94ED0160E089E00E946B
:1016A000ED0161E088E00E94ED0168EE73E080E00A
:1016B00090E00E9483020E94EF0460E080E00E94BC
:1016C000BC048EEE91E00E94550561E080E00E942E
:1016D000BC046091E6027091E7028091E80290916B
:1016E000E9025FCF1092E1028BEF91E00E945A0570
:1016F0000E94EF0460E080E00E94BC0481E791E07A
:101700000E94550568EE73E080E090E00E9483023D
:1017100061E080E00E94BC048EE092E00E945505EA
:1017200060E08AE00E94ED0160E089E00E94ED0146
:1017300060E088E00E94ED01E9CE5058BB27AA275F
:101740000E94B50B0C94B60C0E94A80C38F00E94B5
:10175000AF0C20F039F49F3F19F426F40C94A50C3B
:101760000EF4E095E7FB0C949F0CE92F0E94C70C48
:1017700058F3BA17620773078407950720F079F4C6
:10178000A6F50C94E90C0EF4E0950B2EBA2FA02DC3
:101790000B01B90190010C01CA01A0011124FF271E
:1017A000591B99F0593F50F4503E68F11A16F04019
:1017B000A22F232F342F4427585FF3CF4695379518
:1017C0002795A795F0405395C9F77EF41F16BA0BDD
:1017D000620B730B840BBAF09150A1F0FF0FBB1F8B
:1017E000661F771F881FC2F70EC0BA0F621F731FD4
:1017F000841F48F4879577956795B795F7959E3F31
:1018000008F0B0CF9395880F08F09927EE0F9795C1
:10181000879508950E947B0C08F481E008950E944A
:10182000CF0C88F09F5798F0B92F9927B751B0F097
:10183000E1F0660F771F881F991F1AF0BA95C9F754
:1018400014C0B13091F00E94E90CB1E008950C94FD
:10185000E90C672F782F8827B85F39F0B93FCCF3B0
:10186000869577956795B395D9F73EF490958095D1
:10187000709561957F4F8F4F9F4F0895E89409C0F1
:1018800097FB3EF490958095709561957F4F8F4FB3
:101890009F4F9923A9F0F92F96E9BB279395F695C9
:1018A000879577956795B795F111F8CFFAF4BB0F47
:1018B00011F460FF1BC06F5F7F4F8F4F9F4F16C0AB
:1018C000882311F096E911C0772321F09EE8872F35
:1018D000762F05C0662371F096E8862F70E060E0F1
:1018E0002AF09A95660F771F881FDAF7880F96956A
:1018F000879597F90895990F0008550FAA0BE0E80E
:10190000FEEF16161706E807F907C0F012161306C1
:10191000E407F50798F0621B730B840B950B39F401
:101920000A2661F0232B242B252B21F408950A2667
:1019300009F4A140A6958FEF811D811D089597F9A7
:101940009F6780E870E060E008959FEF80EC089565
:1019500000240A941616170618060906089500248E
:101960000A9412161306140605060895092E039408
:10197000000C11F4882352F0BB0F40F4BF2B11F47C
:1019800060FF04C06F5F7F4F8F4F9F4F089557FDDB
:101990009058440F551F59F05F3F71F04795880FDD
:1019A00097FB991F61F09F3F79F087950895121674
:1019B00013061406551FF2CF4695F1DF08C0161620
:1019C00017061806991FF1CF8695710561050894D1
:1019D0000895E894BB2766277727CB0197F90895E8
:1019E0000E947B0C08F48FEF08950E94080D0C9460
:1019F000B60C0E94A80C38F00E94AF0C20F0952382
:101A000011F00C949F0C0C94A50C11240C94EA0C6E
:101A10000E94C70C70F3959FC1F3950F50E0551FBE
:101A2000629FF001729FBB27F00DB11D639FAA2733
:101A3000F00DB11DAA1F649F6627B00DA11D661F82
:101A4000829F2227B00DA11D621F739FB00DA11DA3
:101A5000621F839FA00D611D221F749F3327A00D5D
:101A6000611D231F849F600D211D822F762F6A2FF9
:101A700011249F5750409AF0F1F088234AF0EE0F5E
:101A8000FF1FBB1F661F771F881F91505040A9F78B
:101A90009E3F510580F00C949F0C0C94EA0C5F3F24
:101AA000E4F3983ED4F3869577956795B795F795C7
:101AB000E7959F5FC1F7FE2B880F911D969587953F
:101AC00097F908950E947B0C880B990B0895A1E269
:101AD0001A2EAA1BBB1BFD010DC0AA1FBB1FEE1FA8
:101AE000FF1FA217B307E407F50720F0A21BB30BF3
:101AF000E40BF50B661F771F881F991F1A9469F76F
:101B000060957095809590959B01AC01BD01CF01CA
:101B10000895EE0FFF1F0590F491E02D0994F894BD
:021B2000FFCFF5
:101B22000000400014005400000000002E018E004E
:101B3200BB007B01EC00CA00DE0000000000730362
:101B4200460389041C033F032C031D03000000000D
:101B5200FA048E008904B5020D0A006E616E0069F6
:101B62006E66006F766600534D41525420535953AE
:101B720054454D2100496E697469616C697A696ED8
:101B82006700416C6C2053797374656D73204F6EDE
:101B920000534D41525420504F57455220535953F0
:101BA20000416C6C2053797374656D73204F4E2124
:101BB20000534F4C415220494E2055534500562068
:101BC200696E70757400536F6C6172206973206F57
:101BD2006E0054757262696E65206973206F6E00C3
:101BE20054757262696E65204F4E210054555242FF
:101BF200494E45204F4E21004D41494E53206973B5
:101C0200206F6E004D61696E73204F4E21004D4171
:101C1200494E53204953204F4E2100416C6C207095
:101C2200686173657320617265206F666600414C5E
:0E1C32004C20504841534553204F4646210058
:00000001FF
